:1000000039C0000053C0000051C000004FC00000C4
:100010004DC000004BC0000049C0000047C00000B8
:1000200045C0000043C0000041C000005BC40000A8
:10003000FFC400003BC0000039C0000037C0000012
:1000400035C0000033C0000031C000002FC00000E8
:100050002DC000002BC0000029C00000B2C100006C
:1000600025C0000023C0000021C000001FC0000008
:100070001DC0000011241FBECFEFD2E0DEBFCDBFF8
:1000800012E0A0E0B1E0EAE1F2E102C005900D92D9
:10009000A437B107D9F723E0A4E7B2E001C01D926D
:1000A000A03BB207E1F772D10C940B09A9CFFC0178
:1000B000E058FF4FA081B1816C93A081B1819D0177
:1000C0002F5F3F4F318320832E173F0721F4129675
:1000D0009C938E9311972FB7F894FC01EC57FF4F28
:1000E00080818F5F80832FBF0895DC01AE57BF4FA3
:1000F000ED91FC91119721911196FC93EE93AC0137
:1001000040585F4FE417F50711F48D939C933FB768
:10011000F894FC01EC57FF4F9081915090833FBFC2
:10012000822F0895789413E0D8E2C2E08EB3843031
:1001300029F580910D01882309F1809108018F70C4
:100140008093E9008091E80082FF18C09091F1004F
:100150008091F200811105C08091E8008B77809337
:10016000E800E091960281E08E0F80939602F0E025
:10017000EB58FD4F90835C98109398028091C800D3
:1001800085FF15C0E0919502809196028E1779F057
:1001900081E08E0F80939502F0E0EB58FD4F808157
:1001A0008093CE00809195028F7180939502A89BD9
:1001B00019C0A89A80919702882341F080919702F4
:1001C000815080939702811101C05D9A80919802BD
:1001D000882341F080919802815080939802811188
:1001E00001C05C9AC8D580917402813009F09ECF1D
:1001F00080910001815080930001811197CFD093AD
:10020000000185B18C2785B991CF2FB7F8948FE184
:1002100093E09093A00380939F039093A203809315
:10022000A1032FBF2FB7F8948AE992E090931B03A4
:1002300080931A0390931D0380931C032FBF78941F
:10024000D3E09FB7F8948091A3039FBF803849F013
:100250008EE091E0B4D797FD04C0682F8FE193E062
:1002600026DF8FB7F894C0911E038FBFA89902C0F4
:10027000C13658F1A89A80911E03882319F05D9821
:10028000D0939702CC2349F08AE992E02EDF682FC1
:100290008EE091E02CD7C150F5CF80919702882352
:1002A00041F080919702815080939702811101C0A3
:1002B0005D9A80919802882341F080919802815044
:1002C00080939802811101C05C9A9FB7F894809145
:1002D000A3039FBF882361F08FE193E006DF909135
:1002E000C80095FFFCCF8093CE005C98D093980215
:1002F0008EE091E04FD73FD5A4CF84B7877F84BFEE
:100300000FB6F894A8958091600088618093600092
:10031000109260000FBE82E084B98CE085B91A9912
:1003200013C01092290187E690E09093CD0080934E
:10033000CC0086E08093CA001092C80088E18093C8
:10034000C900539A5A9A12C081E0809329011B99DF
:1003500005C0809374021092CC0003C08FE180939B
:10036000CC0088E18093C9008EE085B984E085BD2A
:10037000AAD28AB180638AB98BB180638BB980912C
:100380002901811102C05F9A579A0895B6DF8091C2
:100390002901813009F4C6DE38DF0895089580917F
:1003A0002901813019F481E091E0FEC48EE091E0F2
:1003B00079C680912901813019F481E091E00CC562
:1003C00008951F920F920FB60F9211242F933F930F
:1003D0004F935F936F937F938F939F93AF93BF934D
:1003E000EF93FF9380912901811108C06091CE00A5
:1003F0008EB3843019F48AE992E059DEFF91EF91CF
:10040000BF91AF919F918F917F916F915F914F912C
:100410003F912F910F900FBE0F901F90189580E085
:10042000089581E00895292F33272230310589F07E
:1004300023303105C1F02130310509F056C08091DB
:100440002901813009F447C082E190E022E632E0E0
:1004500050C080912901813009F442C08EE390E0C0
:1004600022E132E046C099278130910561F018F011
:100470000297E9F03AC0EAEDF1E0E4918E2F90E0C6
:100480002AED31E036C080912901813041F4E2E764
:10049000F1E0E4918E2F90E022E731E02AC0E6EA15
:1004A000F1E0E4918E2F90E026EA31E022C08091C5
:1004B0002901813041F4EAE2F1E0E4918E2F90E0ED
:1004C0002AE231E016C0E8E5F1E0E4918E2F90E0F9
:1004D00028E531E00EC082E190E020E532E009C07D
:1004E00084E390E02EED31E004C080E090E020E075
:1004F00030E0FA013183208308952091AE033091DA
:10050000AF032617370748F06115710539F42091BC
:10051000E8002E772093E80001C0B901FC0120E03B
:100520006115710559F18EB38823D1F18530D1F170
:100530008091E80083FD38C08091E80082FD2AC0E8
:100540008091E80080FFECCF8091F20090E061158F
:10055000710551F08830910538F421912093F10014
:10056000615071090196F3CF21E0089709F020E06E
:100570008091E8008E778093E800D2CF2111D3CF0D
:1005800009C08EB3882361F0853061F08091E80066
:1005900083FD0AC08091E80082FFF3CF80E00895D8
:1005A00082E0089583E0089581E008956115710562
:1005B00029F42091E8002B772093E800FC016115D5
:1005C000710511F18EB3882339F1853039F18091AD
:1005D000E80083FD1FC08091E80082FFF0CF80918A
:1005E000F200882331F08091F1008193615071090C
:1005F000B1F78091E8008B778093E800E0CF8EB36D
:10060000882351F0853051F08091E80080FFF7CFCA
:1006100080E0089581E0089582E0089583E00895E0
:100620002091AE033091AF032617370748F06115CC
:10063000710539F42091E8002E772093E80001C07D
:10064000B901FC0120E06115710561F18EB38823C9
:10065000D9F18530D9F18091E80083FD39C08091CE
:10066000E80082FD2BC08091E80080FFECCF8091F4
:10067000F20090E06115710559F08830910540F461
:1006800024912093F1003196615071090196F2CFC7
:1006900021E0089709F020E08091E8008E778093B0
:1006A000E800D1CF2111D2CF09C08EB3882361F0E9
:1006B000853061F08091E80083FD0AC08091E800F8
:1006C00082FFF3CF80E0089582E0089583E00895EB
:1006D00081E00895982F953068F59093E900981778
:1006E00039F07091EC002091ED005091F00003C0C2
:1006F000242F762F50E021FD02C09F5FECCF309178
:10070000EB003E7F3093EB003091ED003D7F309366
:10071000ED003091EB0031603093EB007093EC0012
:100720002093ED005093F0002091EE0027FDE5CFDF
:1007300080E008958F708093E90081E008950F9321
:100740001F93CF93DF93062FEC0110E0101771F188
:100750009881911103C01F5F2596F8CF2C81A98144
:10076000BA816B81892F8F70853010F080E01FC0B7
:10077000223010F442E001C046E0E8E0F0E020E082
:10078000EA17FB0720F42F5FEE0FFF1FF9CF22952A
:10079000207F422B6295660F660F607C991F992718
:1007A000991F692B97DF8111D6CFE0CF81E0DF91D0
:1007B000CF911F910F9108958091A80387FF0FC0DB
:1007C0008091E80082FD04C08EB38111F9CF10C082
:1007D0008091E8008B770AC08EB3882349F080911E
:1007E000E80080FFF9CF8091E8008E778093E800E1
:1007F00008952091E4003091E50095E64091EC00E9
:10080000842F817040FF22C08091E80080FD1CC0D1
:100810008EB3882399F0853099F08091EB0085FDA7
:1008200011C04091E4005091E5002417350731F3E1
:10083000915011F09A01E2CF84E0089582E008958A
:1008400083E0089581E0089580E008954091E800F4
:1008500042FFDECF089540D042D08091D8008F77FC
:100860008093D8008091D80080688093D8008091D0
:10087000D8008F7D8093D80084E089BD86E089BD53
:1008800009B400FEFDCF1EBA1092A4031092A60375
:100890001092A50342E060E080E01CDF8091E1005F
:1008A0008E7F8093E1008091E20081608093E2007E
:1008B0008091E20088608093E2008091E0008E7F6A
:1008C0008093E0000895E3E6F0E080818E7F8083EE
:1008D00081E08093A703BFCF1092E20008951092A9
:1008E000E10008951F920F920FB60F9211242F93DB
:1008F0003F934F935F936F937F938F939F93AF93A8
:10090000BF93EF93FF938091E10082FF0AC0809133
:10091000E20082FF06C08091E1008B7F8093E100BE
:1009200029D28091E10080FF16C08091E20080FF13
:1009300012C08091E2008E7F8093E2008091E200FD
:1009400080618093E2008091D80080628093D8001B
:1009500019BC1EBA23DD8091E10084FF2EC0809176
:10096000E20084FF2AC084E089BD86E089BD09B425
:1009700000FEFDCF8091D8008F7D8093D8008091BC
:10098000E1008F7E8093E1008091E2008F7E809372
:10099000E2008091E20081608093E2008091A403F4
:1009A000882311F084E007C08091E30087FD02C036
:1009B00081E001C083E08EBBF0DC8091E10083FF29
:1009C00026C08091E20083FF22C08091E100877FF2
:1009D0008093E10082E08EBB1092A4038091E1003D
:1009E0008E7F8093E1008091E2008E7F8093E20011
:1009F0008091E20080618093E20042E060E080E06C
:100A000069DE8091F00088608093F000B3D1FF919F
:100A1000EF91BF91AF919F918F917F916F915F9176
:100A20004F913F912F910F900FBE0F901F901895EF
:100A30001F920F920FB60F9211242F933F934F9353
:100A40005F936F937F938F939F93AF93BF93CF9356
:100A5000DF93EF93FF93C091E900CF708091EC009A
:100A6000D82FD17080FDD0E81092E9008091F0007D
:100A7000877F8093F00078941ED01092E9008091D7
:100A8000F00088608093F000CD2BCF70C093E90018
:100A9000FF91EF91DF91CF91BF91AF919F918F9196
:100AA0007F916F915F914F913F912F910F900FBE6A
:100AB0000F901F9018951F93CF93DF93CDB7DEB79C
:100AC000AA970FB6F894DEBF0FBECDBFE8EAF3E0F9
:100AD0008091F100819323E0E03BF207C9F769DCE4
:100AE0008091E80083FF2EC18091A8039091A90313
:100AF000953009F483C030F49130A9F168F0933057
:100B000091F120C1983009F4EEC0993009F4FAC08F
:100B1000963009F017C193C0803821F0823809F06F
:100B200011C108C08091A5039091A603992389F073
:100B300082600FC08091AC038F70853008F002C1D5
:100B40008093E9008091EB0085FB882780F9109263
:100B5000E9009091E800977F9093E8008093F1007E
:100B60001092F100CBC0282F2D7F09F0EBC0882315
:100B700019F0823061F0E6C08091AA03813009F05B
:100B8000E1C0933009F080E08093A6032EC08091ED
:100B9000AA0381112AC08091AC038F702FEF280F18
:100BA000243008F0CFC08093E9002091EB0020FFB3
:100BB0001CC0933021F48091EB00806214C09091AE
:100BC000EB0090619093EB0021E030E0A90102C0BE
:100BD000440F551F8A95E2F74093EA001092EA000D
:100BE0008091EB0088608093EB001092E900809187
:100BF000E800877F8093E800DFDDA4C08111A2C0F8
:100C00001091AA031F778091E3008078812B809355
:100C1000E3008091E800877F8093E800CDDD80913C
:100C2000E80080FFFCCF8091E30080688093E300C0
:100C3000111102C082E001C083E08EBB83C08058E6
:100C4000823008F07FC08091AA039091AB038C3D65
:100C500053E0950771F583E08A838AE289834FB771
:100C6000F894DE01139620E03EE051E2E32FF0E03D
:100C700050935700E49120FF03C0E295EF703F5F6F
:100C8000EF708E2F90E0EA3010F0C79601C0C0964A
:100C90008D939D932F5F243149F74FBF8091E800DA
:100CA000877F8093E8006AE270E0CE01019625DC40
:100CB00014C06091AC037091AD03AE014F5F5F4F04
:100CC000B2DBBC01892B09F43DC09091E800977F0D
:100CD0009093E80089819A81A3DC8091E8008B776A
:100CE0008093E8002FC0803869F58091E800877F05
:100CF0008093E8008091A4038093F1008091E80044
:100D00008E7778CF81111EC08091AA039091AB039A
:100D100099270297BCF48091E800877F8093E800D0
:100D20008091AA038093A40347DD8091A4038111DD
:100D300006C08091E30087FD02C081E001C084E02D
:100D40008EBB2DDB8091E80083FF0AC08091E80014
:100D5000877F8093E8008091EB0080628093EB00B6
:100D6000AA960FB6F894DEBF0FBECDBFDF91CF912C
:100D70001F9108950895CF938EB3882399F0C09161
:100D8000E900CF709091EC00892F817090FD80E890
:100D9000C82B1092E9008091E80083FD8CDECF70B3
:100DA000C093E900CF910895CF93DF93EC011C86A7
:100DB00081E08D838A8761E0CE010296C0DC8823C2
:100DC00031F061E0CE010796DF91CF91B8CC80E0A1
:100DD000DF91CF91089508954F925F926F927F9225
:100DE0008F929F92AF92BF92CF92DF92EF92FF923B
:100DF0000F931F93CF93DF9300D0CDB7DEB76C0175
:100E00004DB65EB68091E80083FF34C19091A8038F
:100E1000892F8F71813041F42091AC03F60130812C
:100E2000231769F0318109C0823049F42091AC0365
:100E3000F6013281231719F0378123131BC1B090BB
:100E4000A903FBE0BF1699F0FB1528F09FEF9B0D5F
:100E5000943060F10FC121E8B21608F40BC134E8F8
:100E60003B1508F0AAC06FEFB616A9F003C1913088
:100E700009F000C18091E800877F8093E8009CDC46
:100E80009091AA0381E0911101C080E0F60184876E
:100E9000C601A1DFEFC09152923008F0EBC0809103
:100EA000E800877F8093E80087DCE4C0823009F0A7
:100EB00042C0A090AC037090AB03E12CF12C00E099
:100EC00010E0272D4A2D6B2DC601ABDA882309F4DB
:100ED000D1C08DB69EB68091AE039091AF039A8338
:100EE00089832DB73EB7281B390B0FB6F8943EBF48
:100EF0000FBE2DBF6DB77EB76F5F7F4F7B018091B7
:100F0000E800877F8093E80069817A81C7014EDB22
:100F10008091E8008E778093E8008E010F5F1F4F6D
:100F2000272D4A2D6B2DC6017CDA0FB6F8949EBE94
:100F30000FBE8DBE9FC0813009F09CC0A090AD0354
:100F40008090AA039090AB03E12CF12C00E010E01C
:100F500094014A2D6B2DC60162DA882309F48AC0F8
:100F60006DB67EB68091AE039091AF039A8389836C
:100F7000EDB7FEB7E81BF90B0FB6F894FEBF0FBE36
:100F8000EDBF2DB73EB72F5F3F4F79018091E8004D
:100F9000877F8093E80069817A81C90107DB8091AE
:100FA000E8008E778093E8008E010F5F1F4F940159
:100FB0004A2D6B2DC60133DA58C0823009F56DB663
:100FC0007EB64091AC032091AB038091AE0390912B
:100FD000AF039A8389836DB77EB7681B790B0FB611
:100FE000F8947EBF0FBE6DBF8DB79EB701964C01C2
:100FF0007C018E010F5F1F4F6B2DC60112DA25C0D9
:101000008130C1F56DB67EB64091AD032091AA0343
:101010003091AB038091AE039091AF039A838983A3
:10102000EDB7FEB7E81BF90B0FB6F894FEBF0FBE85
:10103000EDBF6DB77EB76F5F7F4F4B017B018E01B8
:101040000F5F1F4F6B2DC601EAD9882371F0809185
:10105000E800877F8093E80069817A81C4014DDAD6
:101060008091E8008B778093E8000FB6F8947EBEFD
:101070000FBE6DBE0FB6F8945EBE0FBE4DBE0F9094
:101080000F90DF91CF911F910F91FF90EF90DF9024
:10109000CF90BF90AF909F908F907F906F905F9018
:1010A0004F900895CF93DF93EC01FC0170968BE095
:1010B000DF011D928A95E9F782E08C83898783E0BE
:1010C0008E8761E0CE0101963ADB882361F061E012
:1010D000CE01069634DB882331F061E0CE010B9619
:1010E000DF91CF912CCB80E0DF91CF9108950F93CA
:1010F0001F93CF932EB32430F9F4FC010489158992
:1011000026893789012B022B032BB1F0C62F818151
:101110008F708093E9008091E80085FF04C0C09340
:10112000F10080E00AC08091E8008E778093E800AB
:1011300060DB8823A1F301C082E0CF911F910F9162
:1011400008952EB3243021F5FC0144895589668920
:101150007789452B462B472BD9F081818F7080935F
:10116000E9008091F200882389F09091E800809155
:10117000E8008E778093E80095FD08C03ADB811186
:1011800008C08091E8008E778093E80080E00895A1
:1011900082E008952EB3243089F4FC0144895589F6
:1011A00066897789452B462B472B41F021812F708B
:1011B0002093E9002091E80020FDC3CF08952EB3CD
:1011C000243019F08FEF9FEF0895FC014489558971
:1011D00066897789452B462B472BA1F386818F7033
:1011E0008093E9008091E80082FFECCF8091F200CB
:1011F000882321F02091F10030E002C02FEF3FEF73
:101200008091F200811105C08091E8008B77809376
:0A121000E800C9010895F894FFCF2B
:10121A00280001000000000001080000010000038E
:10122A004000000104400000010208000001000023
:10123A000000000000000000000112034D006F00D2
:10124A0063006F004C005500460041002000410039
:10125A005500440049004F00200044006500760014
:10126A006900630065000000180341007200640011
:10127A00750069006E006F00200055006E006F0057
:10128A000000320369006300610072006F006C00A5
:10129A0069006D0061006E0075006E0065007300E4
:1012AA00400067006D00610069006C002E00630059
:1012BA006F006D0000003203410072006400750087
:1012CA0069006E006F002000280077007700770021
:1012DA002E00610072006400750069006E006F00E4
:1012EA002E006300630029000000040309040902B8
:1012FA003400020100C032090400000001010000AC
:10130A000924010001090001010924010002010266
:10131A00000007240100000100090501010800017D
:10132A00000009023E00020100C032090400000167
:10133A000202010005240010010424020605240605
:10134A000001070582030800FF09040100020A00E0
:10135A00000007050402400001070583024000015E
:10136A001201A00100000008EB034820000001025E
:10137A0000011201A001020000084123010001003E
:04138A000102DC017F
:00000001FF
